{
  "contractName": "ChemicalTracker",
  "abi": [
    {
      "anonymous": false,
      "inputs": [
        {
          "indexed": false,
          "internalType": "uint256",
          "name": "batchID",
          "type": "uint256"
        }
      ],
      "name": "BatchCompleted",
      "type": "event"
    },
    {
      "anonymous": false,
      "inputs": [
        {
          "indexed": false,
          "internalType": "uint256",
          "name": "batchID",
          "type": "uint256"
        },
        {
          "indexed": false,
          "internalType": "string",
          "name": "chemicalName",
          "type": "string"
        },
        {
          "indexed": true,
          "internalType": "address",
          "name": "owner",
          "type": "address"
        }
      ],
      "name": "BatchCreated",
      "type": "event"
    },
    {
      "anonymous": false,
      "inputs": [
        {
          "indexed": false,
          "internalType": "uint256",
          "name": "batchID",
          "type": "uint256"
        },
        {
          "indexed": true,
          "internalType": "address",
          "name": "from",
          "type": "address"
        },
        {
          "indexed": true,
          "internalType": "address",
          "name": "to",
          "type": "address"
        },
        {
          "indexed": false,
          "internalType": "string",
          "name": "newLocation",
          "type": "string"
        }
      ],
      "name": "BatchTransferred",
      "type": "event"
    },
    {
      "inputs": [
        {
          "internalType": "uint256",
          "name": "",
          "type": "uint256"
        }
      ],
      "name": "batches",
      "outputs": [
        {
          "internalType": "uint256",
          "name": "batchID",
          "type": "uint256"
        },
        {
          "internalType": "string",
          "name": "chemicalName",
          "type": "string"
        },
        {
          "internalType": "address",
          "name": "manufacturer",
          "type": "address"
        },
        {
          "internalType": "address",
          "name": "currentOwner",
          "type": "address"
        },
        {
          "internalType": "string",
          "name": "location",
          "type": "string"
        },
        {
          "internalType": "bool",
          "name": "completed",
          "type": "bool"
        }
      ],
      "stateMutability": "view",
      "type": "function",
      "constant": true
    },
    {
      "inputs": [],
      "name": "nextBatchID",
      "outputs": [
        {
          "internalType": "uint256",
          "name": "",
          "type": "uint256"
        }
      ],
      "stateMutability": "view",
      "type": "function",
      "constant": true
    },
    {
      "inputs": [
        {
          "internalType": "string",
          "name": "chemicalName",
          "type": "string"
        },
        {
          "internalType": "string",
          "name": "location",
          "type": "string"
        }
      ],
      "name": "createBatch",
      "outputs": [],
      "stateMutability": "nonpayable",
      "type": "function"
    },
    {
      "inputs": [
        {
          "internalType": "uint256",
          "name": "batchID",
          "type": "uint256"
        },
        {
          "internalType": "address",
          "name": "newOwner",
          "type": "address"
        },
        {
          "internalType": "string",
          "name": "newLocation",
          "type": "string"
        }
      ],
      "name": "transferBatch",
      "outputs": [],
      "stateMutability": "nonpayable",
      "type": "function"
    },
    {
      "inputs": [
        {
          "internalType": "uint256",
          "name": "batchID",
          "type": "uint256"
        }
      ],
      "name": "completeBatch",
      "outputs": [],
      "stateMutability": "nonpayable",
      "type": "function"
    }
  ],
  "bytecode": "0x6080604052600160005534801561001557600080fd5b50610df3806100256000396000f3fe608060405234801561001057600080fd5b50600436106100575760003560e01c806301794da31461005c57806392b8f02114610078578063a72598ce14610094578063b32c4d8d146100b2578063c12bcaec146100e7575b600080fd5b610076600480360381019061007191906108b3565b610103565b005b610092600480360381019061008d9190610847565b61020f565b005b61009c6103e3565b6040516100a99190610ab5565b60405180910390f35b6100cc60048036038101906100c791906108b3565b6103e9565b6040516100de96959493929190610b00565b60405180910390f35b61010160048036038101906100fc91906108dc565b610582565b005b6001600082815260200190815260200160002060030160009054906101000a900473ffffffffffffffffffffffffffffffffffffffff1673ffffffffffffffffffffffffffffffffffffffff163373ffffffffffffffffffffffffffffffffffffffff16146101a7576040517f08c379a000000000000000000000000000000000000000000000000000000000815260040161019e90610a95565b60405180910390fd5b600180600083815260200190815260200160002060050160006101000a81548160ff0219169083151502179055507fca47530e7293d9aa5760579be12c79d3610eff2dc0dbe44425086aee4cd9647c816040516102049190610ab5565b60405180910390a150565b6040518060c0016040528060005481526020018381526020013373ffffffffffffffffffffffffffffffffffffffff1681526020013373ffffffffffffffffffffffffffffffffffffffff1681526020018281526020016000151581525060016000805481526020019081526020016000206000820151816000015560208201518160010190805190602001906102a7929190610712565b5060408201518160020160006101000a81548173ffffffffffffffffffffffffffffffffffffffff021916908373ffffffffffffffffffffffffffffffffffffffff16021790555060608201518160030160006101000a81548173ffffffffffffffffffffffffffffffffffffffff021916908373ffffffffffffffffffffffffffffffffffffffff1602179055506080820151816004019080519060200190610352929190610712565b5060a08201518160050160006101000a81548160ff0219169083151502179055509050503373ffffffffffffffffffffffffffffffffffffffff167f195a26ecf0c9b8fb957ecc3a7c029ce84849279de600e16f205ee789052052b6600054846040516103c0929190610ad0565b60405180910390a26000808154809291906103da90610ca8565b91905055505050565b60005481565b600160205280600052604060002060009150905080600001549080600101805461041290610c76565b80601f016020809104026020016040519081016040528092919081815260200182805461043e90610c76565b801561048b5780601f106104605761010080835404028352916020019161048b565b820191906000526020600020905b81548152906001019060200180831161046e57829003601f168201915b5050505050908060020160009054906101000a900473ffffffffffffffffffffffffffffffffffffffff16908060030160009054906101000a900473ffffffffffffffffffffffffffffffffffffffff16908060040180546104ec90610c76565b80601f016020809104026020016040519081016040528092919081815260200182805461051890610c76565b80156105655780601f1061053a57610100808354040283529160200191610565565b820191906000526020600020905b81548152906001019060200180831161054857829003601f168201915b5050505050908060050160009054906101000a900460ff16905086565b6001600084815260200190815260200160002060030160009054906101000a900473ffffffffffffffffffffffffffffffffffffffff1673ffffffffffffffffffffffffffffffffffffffff163373ffffffffffffffffffffffffffffffffffffffff1614610626576040517f08c379a000000000000000000000000000000000000000000000000000000000815260040161061d90610a75565b60405180910390fd5b816001600085815260200190815260200160002060030160006101000a81548173ffffffffffffffffffffffffffffffffffffffff021916908373ffffffffffffffffffffffffffffffffffffffff160217905550806001600085815260200190815260200160002060040190805190602001906106a5929190610712565b508173ffffffffffffffffffffffffffffffffffffffff163373ffffffffffffffffffffffffffffffffffffffff167f5f9f53aaf015683723f6e51c7b9c52d49f4c315e8d8d7144f504fb40e48b92f68584604051610705929190610ad0565b60405180910390a3505050565b82805461071e90610c76565b90600052602060002090601f0160209004810192826107405760008555610787565b82601f1061075957805160ff1916838001178555610787565b82800160010185558215610787579182015b8281111561078657825182559160200191906001019061076b565b5b5090506107949190610798565b5090565b5b808211156107b1576000816000905550600101610799565b5090565b60006107c86107c384610ba0565b610b6f565b9050828152602081018484840111156107e057600080fd5b6107eb848285610c34565b509392505050565b60008135905061080281610d8f565b92915050565b600082601f83011261081957600080fd5b81356108298482602086016107b5565b91505092915050565b60008135905061084181610da6565b92915050565b6000806040838503121561085a57600080fd5b600083013567ffffffffffffffff81111561087457600080fd5b61088085828601610808565b925050602083013567ffffffffffffffff81111561089d57600080fd5b6108a985828601610808565b9150509250929050565b6000602082840312156108c557600080fd5b60006108d384828501610832565b91505092915050565b6000806000606084860312156108f157600080fd5b60006108ff86828701610832565b9350506020610910868287016107f3565b925050604084013567ffffffffffffffff81111561092d57600080fd5b61093986828701610808565b9150509250925092565b61094c81610bec565b82525050565b61095b81610bfe565b82525050565b600061096c82610bd0565b6109768185610bdb565b9350610986818560208601610c43565b61098f81610d7e565b840191505092915050565b60006109a7602d83610bdb565b91507f4f6e6c79207468652063757272656e74206f776e65722063616e207472616e7360008301527f66657220746865206261746368000000000000000000000000000000000000006020830152604082019050919050565b6000610a0d602d83610bdb565b91507f4f6e6c79207468652063757272656e74206f776e65722063616e20636f6d706c60008301527f65746520746865206261746368000000000000000000000000000000000000006020830152604082019050919050565b610a6f81610c2a565b82525050565b60006020820190508181036000830152610a8e8161099a565b9050919050565b60006020820190508181036000830152610aae81610a00565b9050919050565b6000602082019050610aca6000830184610a66565b92915050565b6000604082019050610ae56000830185610a66565b8181036020830152610af78184610961565b90509392505050565b600060c082019050610b156000830189610a66565b8181036020830152610b278188610961565b9050610b366040830187610943565b610b436060830186610943565b8181036080830152610b558185610961565b9050610b6460a0830184610952565b979650505050505050565b6000604051905081810181811067ffffffffffffffff82111715610b9657610b95610d4f565b5b8060405250919050565b600067ffffffffffffffff821115610bbb57610bba610d4f565b5b601f19601f8301169050602081019050919050565b600081519050919050565b600082825260208201905092915050565b6000610bf782610c0a565b9050919050565b60008115159050919050565b600073ffffffffffffffffffffffffffffffffffffffff82169050919050565b6000819050919050565b82818337600083830152505050565b60005b83811015610c61578082015181840152602081019050610c46565b83811115610c70576000848401525b50505050565b60006002820490506001821680610c8e57607f821691505b60208210811415610ca257610ca1610d20565b5b50919050565b6000610cb382610c2a565b91507fffffffffffffffffffffffffffffffffffffffffffffffffffffffffffffffff821415610ce657610ce5610cf1565b5b600182019050919050565b7f4e487b7100000000000000000000000000000000000000000000000000000000600052601160045260246000fd5b7f4e487b7100000000000000000000000000000000000000000000000000000000600052602260045260246000fd5b7f4e487b7100000000000000000000000000000000000000000000000000000000600052604160045260246000fd5b6000601f19601f8301169050919050565b610d9881610bec565b8114610da357600080fd5b50565b610daf81610c2a565b8114610dba57600080fd5b5056fea264697066735822122096fac920f36db6fc3ea263671ca7f2f2c40a3f3a3c3986c8f2936e81da9e02c564736f6c63430008000033",
  "immutableReferences": {},
  "source": "pragma solidity ^0.8.0;\r\n\r\ncontract ChemicalTracker {\r\n    struct ChemicalBatch {\r\n        uint batchID;\r\n        string chemicalName;\r\n        address manufacturer; // Change type from string to address\r\n        address currentOwner;\r\n        string location;\r\n        bool completed;\r\n    }\r\n\r\n    uint public nextBatchID = 1;\r\n    mapping(uint => ChemicalBatch) public batches;\r\n\r\n    event BatchCreated(uint batchID, string chemicalName, address indexed owner);\r\n    event BatchTransferred(uint batchID, address indexed from, address indexed to, string newLocation);\r\n    event BatchCompleted(uint batchID);\r\n\r\n    function createBatch(string memory chemicalName, string memory location) public {\r\n        batches[nextBatchID] = ChemicalBatch({\r\n            batchID: nextBatchID,\r\n            chemicalName: chemicalName,\r\n            manufacturer: msg.sender, // No need for conversion\r\n            currentOwner: msg.sender,\r\n            location: location,\r\n            completed: false\r\n        });\r\n        emit BatchCreated(nextBatchID, chemicalName, msg.sender);\r\n        nextBatchID++;\r\n    }\r\n\r\n    function transferBatch(uint batchID, address newOwner, string memory newLocation) public {\r\n        require(msg.sender == batches[batchID].currentOwner, \"Only the current owner can transfer the batch\");\r\n        batches[batchID].currentOwner = newOwner;\r\n        batches[batchID].location = newLocation;\r\n        emit BatchTransferred(batchID, msg.sender, newOwner, newLocation);\r\n    }\r\n\r\n    function completeBatch(uint batchID) public {\r\n        require(msg.sender == batches[batchID].currentOwner, \"Only the current owner can complete the batch\");\r\n        batches[batchID].completed = true;\r\n        emit BatchCompleted(batchID);\r\n    }\r\n}\r\n\r\n",
  "sourcePath": "C:\\Users\\darsh\\OneDrive\\Desktop\\blockchain-tracking\\contracts\\ChemicalTracker.sol",
  "compiler": {
    "name": "solc",
    "version": "0.8.0+commit.c7dfd78e.Emscripten.clang"
  },
  "schemaVersion": "3.4.16",
  "updatedAt": "2024-09-20T07:49:34.159Z",
  "networkType": "ethereum",
  "devdoc": {
    "kind": "dev",
    "methods": {},
    "version": 1
  },
  "userdoc": {
    "kind": "user",
    "methods": {},
    "version": 1
  }
}